:030000000208BC37
:0C08BC00787FE4F6D8FD758140020893B7
:10000E000106011501260137014A015D01710188C2
:10001E00019F01B801D201EE0002040507090B0190
:10002E0002040810204017021703180319021503C3
:10003E0016031703170317031803190216031703E2
:10004E0018021803170315021803170318021003DA
:10005E0015031602150316031702170318031902C8
:10006E001A031B031F031F0317031803190216039A
:10007E0017031803170318031F031F021603170392
:10008E00180317031803200320021F031B031F6608
:10009E002003210320031F031B031F661F031B03E3
:1000AE001903190315031A661A0319031503150309
:1000BE001703166617041804180319031F031B03EE
:1000CE001F662003210320031F031B031F661F034C
:1000DE001B031903190315031A661A0319031903CF
:1000EE001F031B031F001A031A031A031B031B0310
:1000FE001A0319031902170315171503160317030D
:10010E0018031704180E18031704180E1866170391
:10011E00180317031803200320021F031B031F6677
:10012E002003210320031F031B031F661F041B0E46
:10013E001B031903190315031A661A031903150372
:10014E0015031703166617041804180319031F0363
:10015E001B031F662003210320031F031B031F66BF
:10016E001F031B031903190315031A661A03190338
:10017E0019031F031B031F00180218031A03190D7E
:10018E0015031502186616021702150000000F015E
:10019E00150216021766180317021502160115022C
:1001AE00100215000F01150216021702170318038D
:1001BE001902150218661703190216031703160003
:1001CE00170119021B021B701A031A0119021903D7
:1001DE001A031B021A0D19031700186618031902C9
:1001EE001A02190C180D1703160111021103100330
:1001FE000F0C100215001F011A01186619031A01BF
:10020E001B021B031B031B0C1A0D190317001F01E6
:10021E001A01186619031A011002100310031A0CA2
:10022E00180D170316000F0115021602177018038A
:10023E001702150315031666160316021603150389
:10024E00100210011101116610030F0C1A0219028F
:10025E00160316031866180318021703160319005F
:10026E0000001703160317011603170316031501D3
:10027E00100315031602160D1703160315031003AC
:10028E00100E15040F01170316031701160317039B
:10029E0016031501100315031602160D1703160388
:1002AE001503100315031601170316031701160382
:1002BE00170316031501100315031602160D170367
:1002CE00160315031003100E15040F01170319035F
:1002DE00190119031A03190317011603160316023F
:1002EE00160D1703160315031003100D1500190331
:1002FE0019031A031F031B031B031A03170D1603FF
:10030E001603160D17011703170319031A021A0203
:10031E001003170D160316011703190319031703FC
:10032E0019021F021B031A031A0E1B0417021A03CB
:10033E001A031A0E1B041A03190317031603170DBB
:10034E00160317031901190319031A031F031B03BD
:10035E001B031A03170D16031603160317011703B3
:10036E00170319031A021A021003170D16031601AA
:10037E00170319031903170319031F021B031A038B
:10038E001A0E1B0417021A031A031A0E1B04171651
:10039E001A031A031A0E1B041A0319031703160362
:0803AE000F021003150000000E
:10087700C290753ED87540EF853E8D85408B438984
:0C08870011D2A9C2ABC28CC28ED2AF222B
:03000B000208AF39
:0D08AF00C28CB290853D8C853F8AD28C3280
:0D03B6007BFFE4F50CF50DF50E750F3CFD19
:0803C3008B088A09890A8D0BE1
:1003CB00E4F528E528250BFFD3940B401A74F42F82
:1003DB0025E0240EF582E43400F58374019325E0C7
:1003EB00FFE49333FE8013EF25E0240EF582E43413
:1003FB0000F583E493FE740193FFE52825E02410B8
:10040B00F8A60608A607E50D6401450C7018E5284B
:10041B0025E02410F8C000E6FE08E67802CEC313F0
:10042B00CE13D8F9801EE50D6403450C701CE5282E
:10043B0025E02410F8C000E6FE08E67802C333CEB0
:10044B0033CED8F9D000A60608F60528E528640CAB
:10045B0060030203CEE4F535F536AB08AA09A90A09
:10046B00853682853583120694600D74022536F528
:10047B0036E43535F53580E2E4F529F52AAB08AAE3
:10048B0009A90A852A82852983120694F537E52A5C
:10049B002401FFE435298F82F583120694F538ACDD
:1004AB000EAD0F7E277F101206C18E2B8F2CE52CE5
:1004BB007802CEC313CE13D8F9F5328E317802C33E
:1004CB0033CE33CED8F9FF7C007D051206C1C3E5D0
:1004DB00329FF532E5319EF531C28CD28EC3E52ABF
:1004EB009536E52995354003020691E53775F00AF7
:1004FB008485F039E53775F00A8475F00A84ADF020
:10050B00E53775F06484FFE539900025932F25E0DE
:10051B002410F8E6FE08E6FFE5396054BD010BEF49
:10052B007802CEC313CE13D8F9FFBD030BEF7802BD
:10053B00C333CE33CED8F9FF740C2534F534E43500
:10054B0033F533AB07AA06E4F9F87F507EC3FDFC05
:10055B00120833E47B0AFAF9F8120716C3E49FF585
:10056B0034E49EF533F53D85343F853D8C853F8ADC
:10057B00E53875F00A84E5F090002D93F53AE538EF
:10058B0075F00A8475F00A8485F03BE53875F064E4
:10059B0084F53CE53AFD7C00AE2BAF2C1206C1ABCB
:1005AB0007AA06E53CB4010BEAC313FEEB132BFBC6
:1005BB00EE3AFAE53B6401603DE53B702EE53AD33C
:1005CB009404500DC3EB9532F52EEA9531F52D8041
:1005DB0029EBAE027802C333CE33CED8F9FF7C00C1
:1005EB007D051206C18E2D8F2E800FEAC313F52DBC
:1005FB00EB13F52E80048A2D8B2EE5397004F52D27
:10060B00F52EC3EB952EF530EA952DF52FE53960D8
:10061B001FD28C852E28E528D394004013308FFDF4
:10062B00C28E853E8D85408BD28EC28F152880E67B
:10063B00E530452F6021C28CC290853028E528D348
:10064B0094004013308FFDC28E853E8D85408BD23A
:10065B008EC28F152880E67402252AF52AE43529E7
:10066B00F529AB08AA09A90A852A82F583120694F3
:10067B00F537E52A2401FFE435298F82F58312062D
:08068B0094F5380204E8C29066
:010693002244
:100893001208777A0079341203B67A01799C12032D
:0C08A300B67BFF7A0279701203B880E780
:10069400BB010CE58229F582E5833AF583E022501B
:1006A40006E92582F8E622BBFE06E92582F8E22265
:0D06B400E58229F582E5833AF583E493227F
:1006C100BC000BBE0029EF8DF084FFADF022E4CC1D
:1006D100F875F008EF2FFFEE33FEEC33FCEE9DECE6
:1006E100984005FCEE9DFE0FD5F0E9E4CEFD22ED2C
:1006F100F8F5F0EE8420D21CFEADF075F008EF2F76
:10070100FFED33FD4007985006D5F0F222C398FD66
:050711000FD5F0EA2203
:10071600E88FF0A4CC8BF0A42CFCE98EF0A42CFC82
:100726008AF0EDA42CFCEA8EF0A4CDA8F08BF0A400
:100736002DCC3825F0FDE98FF0A42CCD35F0FCEB5F
:100746008EF0A4FEA9F0EB8FF0A4CFC5F02ECD3924
:0F075600FEE43CFCEAA42DCE35F0FDE43CFC2291
:10083300C2D5E830E70FB2D5E4C39BFBE49AFAE4F0
:1008430099F9E498F8EC30E717B2D5120869120762
:10085300A1E4C39BFBE49AFAE499F9E498F88003D2
:100863001207A130D50DE4C39FFFE49EFEE49DFD76
:04087300E49CFC22E3
:1007650075F008758200EF2FFFEE33FECD33CDCC4B
:1007750033CCC58233C5829BED9AEC99E5829840CE
:100785000CF582EE9BFEED9AFDEC99FC0FD5F0D6AB
:10079500E4CEFBE4CDFAE4CCF9A88222B800C1B9D5
:1007A5000059BA002DEC8BF084CFCECDFCE5F0CB13
:1007B500F97818EF2FFFEE33FEED33FDEC33FCEB4C
:1007C50033FB10D703994004EB99FB0FD8E5E4F907
:1007D500FA227818EF2FFFEE33FEED33FDEC33FCF4
:1007E500C933C910D7059BE99A4007EC9BFCE99AE8
:1007F500F90FD8E0E4C9FAE4CCFB2275F010EF2F2D
:10080500FFEE33FEED33FDCC33CCC833C810D7072C
:100815009BEC9AE899400AED9BFDEC9AFCE899F867
:0E0825000FD5F0DAE4CDFBE4CCFAE4C8F922FA
:00000001FF
